:10000000A5C1C9C1F5C1C7C194C5C5C1C4C1C3C1DA
:10001000C2C1C1C1C0C1BFC1BEC1BDC1BCC13D3EE5
:100020003F4061426344415569486B4A4B4C4D4ED9
:1000300051504F61535C5556575859606B656D6709
:100040006F69417163644579774C794E7B505D4DA2
:100050006F707172737475767778797A7B7C7D7E38
:100060004F487251434C45464748694E5B555D5772
:100070005F597158535455565758595A5B5C5D5ED9
:100080005F607D66456C476E49706D716B6C6B7D12
:100090005178537A557C777E777875417D443F4619
:1000A000414845464344414D49504B524D545152AD
:1000B0004F504D59555C575E596055615B5C5B6DA7
:1000C00063606962736463756768496A4B6C4B7DF2
:1000D000704072427374777A59406B42654443456D
:1000E0003F4043424552674761484F4A4B4C494E57
:1000F0005159535B55595159575879616B656D6723
:100100006F6941676364656C777179737B754D7D49
:100110006F70777E4B7755764F7B3F467B7C4944AB
:100120005149634A554D514C474867505D545F569D
:100130006158735953545365676069626B647D6598
:100140005F6063626564637569686B6A6B6C6D742C
:100150003F79417B437D55457778757A7D453F47AB
:1001600041457D454344414649514B534D514951C9
:100170004F507159635C655E6760795E5B5C556585
:100180007368736A756C456D6768656A6D756F77BE
:1001900071756D757374537C49404B424D445F4596
:1001A0003F403F51534C554E575069514B4C4F5265
:1001B0007158435A7D5C5B5D575851616F646F663F
:1001C000716841696364716C79714B727D75797482
:1001D0006F704F78457C477E49405B417B7C5B4438
:1001E0005148534A554C674D4748494A5B547E5DD8
:1001F0004F585152535475596F5A5F5C596B5D603B
:100200005F6067627B6445753F686F6A6B6C4D75B4
:100210003F78417A437C557A7778597A5B7C794D7F
:10022000614063424344454C575159535B556D5DA2
:100230004F506F58655C675E69607B615B5C5B6DAE
:100240006F68716A736C456D676847707D743F763F
:100250004178537973747646784857495B7C5D7E64
:100260003F4042001201010100000008C016DA27D9
:1002700000010102000105010902A1010901A1001B
:10028000050919012903150025019503750181024E
:100290009501750581010501093009311581257F19
:1002A000750895028106093895018106C0C00102D2
:1002B0000408102001010101010100380037090282
:1002C0002200010100803209040000010300000047
:1002D0000921010100012238000705810308000AF5
:1002E0001201100100000008C016DA270001010207
:1002F000030128036400690067006900730074004B
:1003000075006D0070002E0063006F006D003A00F4
:100310004D006F0075007300650010034400690014
:10032000670069004B00650079001C0364006900E8
:10033000670069007300740075006D0070002E0086
:1003400063006F006D0004030904730511241FBED0
:10035000CFE5D2E0DEBFCDBF10E0A0E6B0E0ECEB31
:10036000FFE002C005900D92A436B107D9F720E056
:10037000A4E6B0E001C01D92A13CB207E1F711E094
:10038000C6EAD1E003C02197FE0103D6C53AD107E2
:10039000D1F7BCD311C634CEA82FB92F80E090E09E
:1003A00041E050EA609530E009C02D918227979591
:1003B000879510F084279527305EC8F36F5FA8F308
:1003C0000895EADF8D939D930895A6E088279927E5
:1003D000AA9569F00197E1F3B399FCCFB39BFECFE7
:1003E00081E09927A6B3019611F0A871D9F7089575
:1003F000CF93CFB7CF93C395B39BE9F7B39B0BC014
:10040000B39B09C0B39B07C0B39B05C0B39B03C09C
:10041000B39B01C0D5C00F92DF93C091A400DD272C
:10042000C555DF4F012EB39B03C0DF910F90E6CF80
:100430002F930F931F934F932FEF4F6F06B303FB31
:1004400020F95F933F9350E03BE065C016B301266F
:10045000502953FDC89556B3012703FB25F92F7387
:1004600006B3B1F05027102713FB26F906B222304D
:10047000F0F000C016B3012703FB27F9012650292D
:1004800006B22430E8F54F77206816B30000F6CFA7
:1004900050274F7D206206B2102F000000C006B327
:1004A00000265029102713FB26F906B2E2CF4F7B16
:1004B00006B3206400C0DACF01265029187106B2B5
:1004C00069F14E7F2160012F16B328C00026502904
:1004D0004D7F06B22260102F29C0012650294B7F84
:1004E00006B22460012F2DC016B301265029477F84
:1004F0002860000006B22EC04F7E06B3206130C0D7
:10050000422706B3499300265029102706B24FEF21
:1005100013FB20F9297F16B379F2187159F10126DE
:10052000502906B2012703FB21F9237F06B371F29C
:10053000002650293150D0F006B2102713FB22F9C3
:10054000277E16B351F201265029012703FB06B27C
:1005500023F92F7C49F2000006B3102713FB24F97E
:100560000026502906B22F7939F270CF10E21ABF57
:10057000002719C03B503195C31BD04010E21ABF71
:100580000881033C09F10B34F9F02091A200198194
:10059000110F1213EDCF4A81441F093651F10D326C
:1005A00011F0013E29F70093A9003F915F914F910F
:1005B0001F910F912F91DF910F90CAB7C5FD1BCFEF
:1005C000CF91CFBFCF9118952091A900222369F335
:1005D0001091A700112379F534307AF13093A700F8
:1005E0002093A3001091A4003BE0311B3093A400A2
:1005F00024C00091A7000130F4F40AE54F7049F4DB
:100600003091630034FD1AC000936300CBE8D0E062
:1006100019C03091960034FD11C000939600C7E9CF
:10062000D0E010C0052710E000C021C0052710E071
:10063000C89508BB14C03AE501C032ED032EC0E0F6
:10064000D0E032E017B31861C39A08B317BB58E182
:1006500020E84FEF20FF052708BB279517951C3F83
:1006600028F700004552B0F720FF0527279508BB63
:1006700017951C3FB8F629913A9561F7077E1091BE
:10068000A800110F08BBC250D04011F01093A20077
:1006900010E21ABF086017B3177E402F477E54E060
:1006A0005A95F1F708BB17BB48BB7FCFFF920F935A
:1006B0001F93CF93DF9380E8F82E00E0C0E0D0E0F6
:1006C000102F1F0D11BF81DE29E0843392070CF03B
:1006D000102FF6942196C830D10511F0012FF0CFDC
:1006E000115011BF1F5F012FEC0110C06EDE84534B
:1006F000994097FF03C0909581959F4F8C179D0758
:1007000014F401B7EC0181B78F5F81BF21B730E0EE
:10071000812F90E001968217930744F701BFDF9184
:10072000CF911F910F91FF900895009769F040912C
:100730007600509177006091780070917900FC010B
:100740004083518362837383809176009091770018
:10075000A0917800B091790080937200909373001B
:10076000A0937400B09375000895E6E7F0E011825D
:1007700012821382E2E7F0E011821282138208955E
:10078000CF92DF92EF92FF92CCD21AD26B017C0112
:100790004091690050916A0060916B0070916C000B
:1007A0002091610030E0220F331F220F331FC90157
:1007B000330FAA0BBB0BC41AD50AE60AF70AC816F0
:1007C000D906EA06FB0678F0840F951FA61FB71F0F
:1007D0008093690090936A00A0936B00B0936C00C3
:1007E00081E080936D0044E050E062E770E086E7CE
:1007F00090E0D5D3892BA9F081E080936D008091A2
:10080000960084FF12C010926D008EE690E08DDF9E
:10081000ACDF64E08EE690E0FF90EF90DF90CF9049
:100820005EC280916D008111EACFFF90EF90DF9062
:10083000CF9008954F925F926F927F928F929F9286
:10084000AF92BF92CF92DF92EF92FF92CF93DF935E
:10085000EC016A017B01B4D14B015C011C141D0445
:100860001E041F0484F4ACD12B013C01C418D5082C
:10087000E608F708C80CD91CEA1CFB1CCE0180DF77
:1008800053014201EBCFDF91CF91FF90EF90DF90CA
:10089000CF90BF90AF909F908F907F906F905F9020
:1008A0004F900895FC018EE690E09093A60080930F
:1008B000A50080818076803291F48181813089F039
:1008C000823041F481E690E09093A6008093A500E9
:1008D00081E008958A3019F483818093610080E07B
:1008E000089584E00895FC0180818076F9F4918177
:1008F0009630E9F49381913019F0923261F00895C5
:1009000080917B0090917C009093A6008093A5003D
:1009100080917A00089580917E0090917F0090935D
:10092000A6008093A50080917D00089580E0089541
:10093000F894BB9A2FE182E19AE0215080409040E8
:10094000E1F700C00000BB9800D3789439D16093E0
:10095000690070936A0080936B0090936C0061E073
:1009600081E053C1609167006F5F609367006170C1
:1009700081E085D180916500909166008D30910570
:1009800068F0EEE1F0E0E491ED3341F48436910556
:1009900060F444E650E060E070E004C04AE050E0FB
:1009A00060E070E088E690E045CF44EF51E060E021
:1009B00070E086399105B0F348EE53E060E070E0F6
:1009C000883C910578F348E853E160E070E08A3FA5
:1009D000910540F340E157E260E070E08C329140D5
:1009E00008F340E25EE460E070E0DCCFCF93DF9399
:1009F0008091640066E0B4D2492F20916500309167
:100A00006600B901680F711D87FD7A95FB01E05EF4
:100A1000FF4FE49121EC3FEF261B370BE20FF32F42
:100A2000F11DEF73FF2702C0F695E7954A95E2F7AF
:100A3000CE2FC170D8E080916000803809F481E841
:100A4000C09376001092770080937800109279001E
:100A500089DFD15081F780916400909160009130DE
:100A6000B1F4980F909364009C30D4F19FEF909371
:100A7000600080936400C093760084E080937700E8
:100A80001092780010927900DF91CF916BCF9FEF99
:100A9000980F9093640097FF23C091E090936000BB
:100AA0008093640080916500909166000296909317
:100AB000660080936500C093760084E080937700A1
:100AC00010927800109279004DDF8091650090912E
:100AD00066008334924020F0109266001092650008
:100AE000DF91CF91089586E792E090937F00809305
:100AF0007E0088E380937D0084E692E090937C0002
:100B000080937B0082E180937A00089565D010DFA6
:100B10006DDFFECF83B7887F83BF8AB58C7F81600E
:100B20008ABD83B7877F83BF83B7887F836083BF96
:100B3000089578941F920F920FB60F9211242F935D
:100B40003F938F939F93AF93BF9380918100909138
:100B50008200A0918300B0918400309180002CE746
:100B6000230F2D3728F02FEF230F0196A11DB11D64
:100B7000209380008093810090938200A093830053
:100B8000B09384008091850090918600A0918700A9
:100B9000B09188000196A11DB11D809385009093AE
:100BA0008600A0938700B0938800BF91AF919F917A
:100BB0008F913F912F910F900FBE0F901F9018951E
:100BC0002FB7F8946091810070918200809183002A
:100BD000909184002FBF0895789480B7806880BF7B
:100BE00080B7806480BF8CB580648CBD8FEF8DBD75
:100BF00080B7807F876080BF89B7846089BF8ADFC4
:100C000086B1876086B9379A0895CF93DF9390E0D5
:100C1000FC01E255FD4F24918C549D4FFC018491C1
:100C2000882329F190E0FC01E454FD4FE491CE2F9C
:100C3000D0E086549D4FFC018491611109C08FB7AB
:100C4000F8949881E22FE095E923E8838FBF0FC0E5
:100C5000623081F4A82FB0E09FB7F8943881822FDA
:100C6000809583238883EC91E22BEC939FBFDF91E7
:100C7000CF9108958FB7F894E881E22BE6CF282F23
:100C800030E0F901E255FD4F9491F901EC54FD4F2C
:100C9000E491EE23A1F0811113C08AB58F738ABD50
:100CA000F0E0E654FD4FA491B0E08FB7611113C09E
:100CB000F8942C91E92FE095E223EC938FBF0895EF
:100CC000813019F48AB58F7CEACF843049F78CB52E
:100CD0008F7C8CBDE5CFF894EC91E92BEECFCF93D0
:100CE000C62F2091960024FF18C02091970038E865
:100CF0002327209397002C2FFC01A8E9B0E08191D5
:100D00008D9321501216DCF36C2F88E990E059DBAB
:100D1000CC5FC0939600CF9108952AE5209396006A
:100D2000EACFCF93DF938091A700835087FD27C040
:100D30009091A3009D3209F58830F9F48091A400C8
:100D4000CCE0D0E0C81BD109C555DF4F83EC8093C0
:100D50008B008AE58093630010928A0088818076F8
:100D600009F467C0CE019EDD9F81911104C09E8170
:100D7000981708F4892F809362001092A700809141
:100D8000630084FF3BC0809162008F3FB9F1C82FA0
:100D9000893008F0C8E08C1B8093620080918B0042
:100DA00098E8892780938B00CC23E1F04091A5003F
:100DB0005091A60080918A0086FFBEC0ACE8B0E0EA
:100DC000FA019C2F84918D9331969150D9F72FEF92
:100DD0002C0F30E02F5F3F4F240F351F3093A600BC
:100DE0002093A5006C2F8CE890E0EBDACC5FCC3040
:100DF00019F08FEF80936200C093630084E196B393
:100E0000987131F48150D9F71092A8001092A20085
:100E1000C1E08111C0E090918900C91739F08823A1
:100E200019F0F89443DC7894C0938900DF91CF9156
:100E300008952A8110929400998191110AC010920C
:100E4000950024E930E082E03093A6002093A500CD
:100E50008BCF953029F42093A80024E930E0F4CF1B
:100E6000963009F052C09B81913059F480EE92E0A7
:100E70009093A6008093A50082E190E490938A006D
:100E800073CF923041F48EEB92E09093A600809362
:100E9000A50082E2F2CF933041F5211108C086E42B
:100EA00093E09093A6008093A50084E0E6CF2130E4
:100EB00041F48AE293E09093A6008093A5008CE130
:100EC000DCCF223041F48AE193E09093A600809336
:100ED000A50080E1D2CF233081F682EF92E090939B
:100EE000A6008093A50088E2C8CF913241F480ED3E
:100EF00092E09093A6008093A50089E0BECF923245
:100F000009F0BBCFCE01EFDCB8CF983071F099304B
:100F100019F42093AA00A1CF9A3059F09B3009F020
:100F20009CCF9BE49093970098CF2AEA30E081E031
:100F30008BCF24E930E0FBCFDA01ECE8F0E09C2F26
:100F40008D9181939150E1F742CFAC9A8BB780623B
:100F50008BBFE6E9F0E08BE481838AE58083089526
:100F600087FB082E062687FD819567FD619505D0D4
:100F70000EF4919507FC81950895991B79E004C0C2
:100F8000991F961708F0961B881F7A95C9F78095C8
:100F90000895EE0FFF1F0590F491E02D0994FB01D9
:100FA000DC0104C08D910190801921F44150504022
:0C0FB000C8F7881B990B0895F894FFCF38
:040FBC000105FF5AD2
:00000001FF